{
  "contractName": "SimpleSavings",
  "abi": [
    {
      "inputs": [],
      "stateMutability": "nonpayable",
      "type": "constructor"
    },
    {
      "anonymous": false,
      "inputs": [
        {
          "indexed": false,
          "internalType": "uint256",
          "name": "remainingMinutes",
          "type": "uint256"
        }
      ],
      "name": "WithdrawalNotAvailable",
      "type": "event"
    },
    {
      "inputs": [],
      "name": "balance",
      "outputs": [
        {
          "internalType": "uint256",
          "name": "",
          "type": "uint256"
        }
      ],
      "stateMutability": "view",
      "type": "function",
      "constant": true
    },
    {
      "inputs": [],
      "name": "lockUntil",
      "outputs": [
        {
          "internalType": "uint256",
          "name": "",
          "type": "uint256"
        }
      ],
      "stateMutability": "view",
      "type": "function",
      "constant": true
    },
    {
      "inputs": [],
      "name": "owner",
      "outputs": [
        {
          "internalType": "address payable",
          "name": "",
          "type": "address"
        }
      ],
      "stateMutability": "view",
      "type": "function",
      "constant": true
    },
    {
      "inputs": [],
      "name": "deposit",
      "outputs": [],
      "stateMutability": "payable",
      "type": "function",
      "payable": true
    },
    {
      "inputs": [],
      "name": "withdraw",
      "outputs": [],
      "stateMutability": "nonpayable",
      "type": "function"
    }
  ],
  "bytecode": "0x608060405234801561001057600080fd5b50600280546001600160a01b03191633179055610271806100326000396000f3fe60806040526004361061004a5760003560e01c80633c78929e1461004f5780633ccfd60b1461007a5780638da5cb5b14610091578063b69ef8a8146100b3578063d0e30db0146100c8575b600080fd5b34801561005b57600080fd5b506100646100d0565b60405161007191906101cd565b60405180910390f35b34801561008657600080fd5b5061008f6100d6565b005b34801561009d57600080fd5b506100a661017c565b60405161007191906101b9565b3480156100bf57600080fd5b5061006461018b565b61008f610191565b60015481565b600154421061012357600254600080546040516001600160a01b039093169281156108fc0292818181858888f19350505050158015610119573d6000803e3d6000fd5b506000805561017a565b6000603c42600154610135919061020e565b61013f91906101ee565b90507f6d85c4bd14a65974d1df281d171e627091eacd5ecf1bcdd30b40d0da96b5fcfe8160405161017091906101cd565b60405180910390a1505b565b6002546001600160a01b031681565b60005481565b346000808282546101a291906101d6565b909155506101b4905042611c206101d6565b600155565b6001600160a01b0391909116815260200190565b90815260200190565b600082198211156101e9576101e9610225565b500190565b60008261020957634e487b7160e01b81526012600452602481fd5b500490565b60008282101561022057610220610225565b500390565b634e487b7160e01b600052601160045260246000fdfea264697066735822122024039bea31248844cd2735fdbd1589bc0da0194851f69ad16a1244c2b28a238564736f6c63430008000033",
  "immutableReferences": {},
  "source": "//SPDX-License-Identifier: UNLICENSED\npragma solidity ^0.8.0;\n\ncontract SimpleSavings {\n    uint256 public balance;\n    uint256 public lockUntil;\n    address payable public owner;\n\n    event WithdrawalNotAvailable(uint256 remainingMinutes);\n\n    constructor() {\n        owner = payable(msg.sender);\n    }\n\n    function deposit() public payable {\n        balance += msg.value;\n        lockUntil = block.timestamp + 2 hours;\n    }\n\n    function withdraw() public {\n        if (block.timestamp >= lockUntil) {\n            owner.transfer(balance);\n            balance = 0;\n        } else {\n            uint256 remainingMinutes = (lockUntil - block.timestamp) / 1 minutes;\n            emit WithdrawalNotAvailable(remainingMinutes);\n        }\n    }\n}\n",
  "sourcePath": "/Users/maanomulaudzi/Desktop/simplecontract/contracts/myContracts.sol",
  "compiler": {
    "name": "solc",
    "version": "0.8.0+commit.c7dfd78e.Emscripten.clang"
  },
  "schemaVersion": "3.4.13",
  "updatedAt": "2023-03-18T12:59:30.964Z",
  "networkType": "ethereum",
  "devdoc": {
    "kind": "dev",
    "methods": {},
    "version": 1
  },
  "userdoc": {
    "kind": "user",
    "methods": {},
    "version": 1
  }
}